{
  "contractName": "Bank",
  "abi": [
    {
      "anonymous": false,
      "inputs": [
        {
          "indexed": true,
          "internalType": "address",
          "name": "from",
          "type": "address"
        },
        {
          "indexed": false,
          "internalType": "uint256",
          "name": "amount",
          "type": "uint256"
        }
      ],
      "name": "Deposite",
      "type": "event"
    },
    {
      "anonymous": false,
      "inputs": [
        {
          "indexed": true,
          "internalType": "address",
          "name": "from",
          "type": "address"
        },
        {
          "indexed": true,
          "internalType": "address",
          "name": "to",
          "type": "address"
        },
        {
          "indexed": false,
          "internalType": "uint256",
          "name": "amount",
          "type": "uint256"
        }
      ],
      "name": "Transfer",
      "type": "event"
    },
    {
      "anonymous": false,
      "inputs": [
        {
          "indexed": true,
          "internalType": "address",
          "name": "to",
          "type": "address"
        },
        {
          "indexed": false,
          "internalType": "uint256",
          "name": "amount",
          "type": "uint256"
        }
      ],
      "name": "Withdraw",
      "type": "event"
    },
    {
      "inputs": [],
      "name": "deposite",
      "outputs": [
        {
          "internalType": "uint256",
          "name": "",
          "type": "uint256"
        }
      ],
      "stateMutability": "payable",
      "type": "function",
      "payable": true
    },
    {
      "inputs": [
        {
          "internalType": "uint256",
          "name": "withdrawAmount",
          "type": "uint256"
        }
      ],
      "name": "withdraw",
      "outputs": [
        {
          "internalType": "uint256",
          "name": "remainingBal",
          "type": "uint256"
        }
      ],
      "stateMutability": "nonpayable",
      "type": "function"
    },
    {
      "inputs": [
        {
          "internalType": "address",
          "name": "to",
          "type": "address"
        },
        {
          "internalType": "uint256",
          "name": "amount",
          "type": "uint256"
        }
      ],
      "name": "transfer",
      "outputs": [
        {
          "internalType": "bool",
          "name": "status",
          "type": "bool"
        }
      ],
      "stateMutability": "nonpayable",
      "type": "function"
    },
    {
      "inputs": [
        {
          "internalType": "address",
          "name": "_address",
          "type": "address"
        }
      ],
      "name": "balance",
      "outputs": [
        {
          "internalType": "uint256",
          "name": "",
          "type": "uint256"
        }
      ],
      "stateMutability": "view",
      "type": "function",
      "constant": true
    },
    {
      "inputs": [],
      "name": "bankBalance",
      "outputs": [
        {
          "internalType": "uint256",
          "name": "",
          "type": "uint256"
        }
      ],
      "stateMutability": "view",
      "type": "function",
      "constant": true
    }
  ],
  "bytecode": "0x608060405234801561001057600080fd5b5061045e806100206000396000f3fe60806040526004361061004a5760003560e01c806328657aa51461004f5780632e1a7d4d14610074578063a50ec32614610094578063a9059cbb1461009c578063e3d670d7146100c9575b600080fd5b34801561005b57600080fd5b50475b60405161006b91906102f8565b60405180910390f35b34801561008057600080fd5b5061005e61008f366004610321565b6100ff565b61005e6101be565b3480156100a857600080fd5b506100bc6100b736600461036f565b610232565b60405161006b91906103b4565b3480156100d557600080fd5b5061005e6100e43660046103c2565b6001600160a01b031660009081526020819052604090205490565b3360009081526020819052604081205482116101a95733600090815260208190526040812080548492906101349084906103f9565b9091555050604051339083156108fc029084906000818181858888f19350505050158015610166573d6000803e3d6000fd5b50336001600160a01b03167f884edad9ce6fa2440d8a54cc123490eb96d2768479d49ff9c7366125a9424364836040516101a091906102f8565b60405180910390a25b50503360009081526020819052604090205490565b336000908152602081905260408120805434919083906101df908490610410565b909155505060405133907f67d0e209d76ed24370106b1fd0fc1c82de411f7b72ba3d92736b75fe4add443a906102169034906102f8565b60405180910390a2503360009081526020819052604090205490565b3360009081526020819052604081205482116102e65733600090815260208190526040812080548492906102679084906103f9565b90915550506001600160a01b03831660009081526020819052604081208054849290610294908490610410565b90915550506040516001600160a01b0384169033907fddf252ad1be2c89b69c2b068fc378daa952ba7f163c4a11628f55a4df523b3ef906102d69086906102f8565b60405180910390a35060016102ea565b5060005b92915050565b805b82525050565b602081016102ea82846102f0565b805b811461031357600080fd5b50565b80356102ea81610306565b60006020828403121561033657610336600080fd5b60006103428484610316565b949350505050565b60006001600160a01b0382166102ea565b6103088161034a565b80356102ea8161035b565b6000806040838503121561038557610385600080fd5b60006103918585610364565b92505060206103a285828601610316565b9150509250929050565b8015156102f2565b602081016102ea82846103ac565b6000602082840312156103d7576103d7600080fd5b60006103428484610364565b634e487b7160e01b600052601160045260246000fd5b60008282101561040b5761040b6103e3565b500390565b60008219821115610423576104236103e3565b50019056fea26469706673582212207c70ad9ccfe638acd1af32016c2fcdaeadf9537a3aeeb2026da47a84fe2abdbe64736f6c634300080e0033",
  "immutableReferences": {},
  "source": "pragma solidity ^0.8.0;\n\ncontract Bank {\n    mapping (address => uint) private balances;\n\n    event Deposite(address indexed from, uint amount);\n    event Withdraw(address indexed to, uint amount);\n    event Transfer(address indexed from,address indexed to, uint amount);\n\n    function deposite() public payable returns (uint256) {\n        balances[msg.sender] += msg.value;\n        emit Deposite(msg.sender, msg.value);\n        return balances[msg.sender];\n    }\n\n    function withdraw(uint256 withdrawAmount) public returns (uint256 remainingBal) {\n        // Check enough balance available, otherwise just return balance\n        if (withdrawAmount <= balances[msg.sender]) {\n            balances[msg.sender] -= withdrawAmount;\n            payable(msg.sender).transfer(withdrawAmount);\n            emit Withdraw(msg.sender, withdrawAmount);\n        }\n        return balances[msg.sender];\n    }\n\n    function transfer(address to, uint256 amount) public returns (bool status){\n        if (amount <= balances[msg.sender]) {\n            balances[msg.sender] -= amount;\n            balances[to] += amount;\n            emit Transfer(msg.sender,to , amount);\n            return true;\n        }else{\n            return false;\n        }\n    }\n\n    function balance(address _address) public view returns (uint) {\n        return balances[_address];\n    }\n    function bankBalance() public view returns (uint) {\n        return address(this).balance;\n    }\n}",
  "sourcePath": "/Users/jarupaksrisuchat/Documents/github/dapp-template-ppenter/contracts/Bank.sol",
  "compiler": {
    "name": "solc",
    "version": "0.8.14+commit.80d49f37.Emscripten.clang"
  },
  "schemaVersion": "3.4.3",
  "updatedAt": "2022-06-09T14:18:08.836Z",
  "networkType": "ethereum",
  "devdoc": {
    "kind": "dev",
    "methods": {},
    "version": 1
  },
  "userdoc": {
    "kind": "user",
    "methods": {},
    "version": 1
  }
}