{
  "contractName": "Feed",
  "abi": [
    {
      "inputs": [],
      "stateMutability": "payable",
      "type": "constructor",
      "payable": true
    },
    {
      "anonymous": false,
      "inputs": [
        {
          "indexed": true,
          "internalType": "address",
          "name": "from",
          "type": "address"
        },
        {
          "indexed": false,
          "internalType": "uint256",
          "name": "postId",
          "type": "uint256"
        },
        {
          "indexed": true,
          "internalType": "uint256",
          "name": "creator",
          "type": "uint256"
        },
        {
          "indexed": true,
          "internalType": "uint256",
          "name": "timestamp",
          "type": "uint256"
        },
        {
          "indexed": false,
          "internalType": "uint256",
          "name": "amount",
          "type": "uint256"
        }
      ],
      "name": "Donate",
      "type": "event"
    },
    {
      "anonymous": false,
      "inputs": [
        {
          "indexed": true,
          "internalType": "uint256",
          "name": "id",
          "type": "uint256"
        },
        {
          "indexed": false,
          "internalType": "uint256",
          "name": "timestamp",
          "type": "uint256"
        },
        {
          "indexed": false,
          "internalType": "string",
          "name": "content",
          "type": "string"
        },
        {
          "indexed": false,
          "internalType": "address",
          "name": "creator",
          "type": "address"
        }
      ],
      "name": "Posting",
      "type": "event"
    },
    {
      "anonymous": false,
      "inputs": [
        {
          "indexed": false,
          "internalType": "address",
          "name": "creator",
          "type": "address"
        },
        {
          "indexed": false,
          "internalType": "uint256",
          "name": "amount",
          "type": "uint256"
        },
        {
          "indexed": false,
          "internalType": "uint256",
          "name": "timestamp",
          "type": "uint256"
        }
      ],
      "name": "Withdraw",
      "type": "event"
    },
    {
      "inputs": [],
      "name": "owner",
      "outputs": [
        {
          "internalType": "address",
          "name": "",
          "type": "address"
        }
      ],
      "stateMutability": "view",
      "type": "function",
      "constant": true
    },
    {
      "inputs": [
        {
          "internalType": "string",
          "name": "content",
          "type": "string"
        }
      ],
      "name": "post",
      "outputs": [],
      "stateMutability": "nonpayable",
      "type": "function"
    },
    {
      "inputs": [
        {
          "internalType": "uint256",
          "name": "id",
          "type": "uint256"
        }
      ],
      "name": "donate",
      "outputs": [],
      "stateMutability": "payable",
      "type": "function",
      "payable": true
    },
    {
      "inputs": [
        {
          "internalType": "uint256",
          "name": "amount",
          "type": "uint256"
        }
      ],
      "name": "withdraw",
      "outputs": [],
      "stateMutability": "nonpayable",
      "type": "function"
    },
    {
      "inputs": [
        {
          "internalType": "address",
          "name": "_address",
          "type": "address"
        }
      ],
      "name": "balance",
      "outputs": [
        {
          "internalType": "uint256",
          "name": "",
          "type": "uint256"
        }
      ],
      "stateMutability": "view",
      "type": "function",
      "constant": true
    },
    {
      "inputs": [],
      "name": "allPost",
      "outputs": [
        {
          "components": [
            {
              "internalType": "uint256",
              "name": "timestamp",
              "type": "uint256"
            },
            {
              "internalType": "uint256",
              "name": "id",
              "type": "uint256"
            },
            {
              "internalType": "string",
              "name": "content",
              "type": "string"
            },
            {
              "internalType": "address",
              "name": "creator",
              "type": "address"
            }
          ],
          "internalType": "struct Feed.Post[]",
          "name": "",
          "type": "tuple[]"
        }
      ],
      "stateMutability": "view",
      "type": "function",
      "constant": true
    },
    {
      "inputs": [
        {
          "internalType": "uint256",
          "name": "id",
          "type": "uint256"
        }
      ],
      "name": "getPost",
      "outputs": [
        {
          "components": [
            {
              "internalType": "uint256",
              "name": "timestamp",
              "type": "uint256"
            },
            {
              "internalType": "uint256",
              "name": "id",
              "type": "uint256"
            },
            {
              "internalType": "string",
              "name": "content",
              "type": "string"
            },
            {
              "internalType": "address",
              "name": "creator",
              "type": "address"
            }
          ],
          "internalType": "struct Feed.Post",
          "name": "",
          "type": "tuple"
        }
      ],
      "stateMutability": "view",
      "type": "function",
      "constant": true
    }
  ],
  "bytecode": "0x608060405260006002819055600355600480546001600160a01b03191633179055610c4e8061002f6000396000f3fe6080604052600436106100705760003560e01c80638ee93cf31161004e5780638ee93cf3146100fa578063d10d7c6b1461011a578063e3d670d71461013c578063f14faf6f1461017f57600080fd5b80632e1a7d4d1461007557806340731c24146100975780638da5cb5b146100cd575b600080fd5b34801561008157600080fd5b50610095610090366004610783565b610192565b005b3480156100a357600080fd5b506100b76100b2366004610783565b61025a565b6040516100c4919061088c565b60405180910390f35b3480156100d957600080fd5b506004546100ed906001600160a01b031681565b6040516100c491906108a4565b34801561010657600080fd5b506100956101153660046109a5565b61037b565b34801561012657600080fd5b5061012f6104b7565b6040516100c49190610a52565b34801561014857600080fd5b50610172610157366004610a77565b6001600160a01b031660009081526001602052604090205490565b6040516100c49190610a98565b61009561018d366004610783565b6105d2565b3360009081526001602052604090205481116102575733600090815260016020526040812080548392906101c7908490610abc565b909155503390506108fc60646101de84600a610ad3565b6101e89190610b08565b6101f29084610abc565b6040518115909202916000818181858888f1935050505015801561021a573d6000803e3d6000fd5b507ff279e6a1f5e320cca91135676d9cb6e44ca8a08c0b88342bcdb1144f6511b56833824260405161024e93929190610b1c565b60405180910390a15b50565b61028e604051806080016040528060008152602001600081526020016060815260200160006001600160a01b031681525090565b600082815481106102a1576102a1610b44565b906000526020600020906004020160405180608001604052908160008201548152602001600182015481526020016002820180546102de90610b70565b80601f016020809104026020016040519081016040528092919081815260200182805461030a90610b70565b80156103575780601f1061032c57610100808354040283529160200191610357565b820191906000526020600020905b81548152906001019060200180831161033a57829003601f168201915b5050509183525050600391909101546001600160a01b031660209091015292915050565b60408051608081018252428152600354602080830191825292820184815233606084015260008054600181018255908052835160049091027f290decd9548b62a8d60345a988386fc84ba6bc95484008f6362f93160ef3e563810191825592517f290decd9548b62a8d60345a988386fc84ba6bc95484008f6362f93160ef3e5648401559051805193949193610438937f290decd9548b62a8d60345a988386fc84ba6bc95484008f6362f93160ef3e565019291909101906106cc565b5060609190910151600391820180546001600160a01b0319166001600160a01b03909216919091179055546040517f4975e008361f3552330fdc43b5bf5427276cc96a83dd5a6ab3c83d9cfd1ceeb79061049790429085903390610b9c565b60405180910390a2600380549060006104af83610bcb565b919050555050565b60606000805480602002602001604051908101604052809291908181526020016000905b828210156105c95783829060005260206000209060040201604051806080016040529081600082015481526020016001820154815260200160028201805461052290610b70565b80601f016020809104026020016040519081016040528092919081815260200182805461054e90610b70565b801561059b5780601f106105705761010080835404028352916020019161059b565b820191906000526020600020905b81548152906001019060200180831161057e57829003601f168201915b5050509183525050600391909101546001600160a01b031660209182015290825260019290920191016104db565b50505050905090565b34600160008084815481106105e9576105e9610b44565b60009182526020808320600360049093020191909101546001600160a01b0316835282019290925260400181208054909190610626908490610be5565b92505081905550346002600082825461063f9190610be5565b92505081905550426001600080848154811061065d5761065d610b44565b60009182526020808320600360049093020191909101546001600160a01b03168352820192909252604090810190912054905133907f65d2a2645fa6728be0ce082c9d861d42795f1d9c36cae260ee3623d54cb2c50f906106c19086903490610bfd565b60405180910390a450565b8280546106d890610b70565b90600052602060002090601f0160209004810192826106fa5760008555610740565b82601f1061071357805160ff1916838001178555610740565b82800160010185558215610740579182015b82811115610740578251825591602001919060010190610725565b5061074c929150610750565b5090565b5b8082111561074c5760008155600101610751565b805b811461025757600080fd5b803561077d81610765565b92915050565b60006020828403121561079857610798600080fd5b60006107a48484610772565b949350505050565b805b82525050565b60005b838110156107cf5781810151838201526020016107b7565b838111156107de576000848401525b50505050565b60006107ee825190565b8084526020840193506108058185602086016107b4565b601f01601f19169290920192915050565b60006001600160a01b03821661077d565b6107ae81610816565b8051600090608084019061084485826107ac565b50602083015161085760208601826107ac565b506040830151848203604086015261086f82826107e4565b91505060608301516108846060860182610827565b509392505050565b6020808252810161089d8184610830565b9392505050565b6020810161077d8284610827565b634e487b7160e01b600052604160045260246000fd5b601f19601f830116810181811067ffffffffffffffff821117156108ee576108ee6108b2565b6040525050565b600061090060405190565b905061090c82826108c8565b919050565b600067ffffffffffffffff82111561092b5761092b6108b2565b601f19601f83011660200192915050565b82818337506000910152565b600061095b61095684610911565b6108f5565b90508281526020810184848401111561097657610976600080fd5b61088484828561093c565b600082601f83011261099557610995600080fd5b81356107a4848260208601610948565b6000602082840312156109ba576109ba600080fd5b813567ffffffffffffffff8111156109d4576109d4600080fd5b6107a484828501610981565b600061089d8383610830565b60006109f6825190565b80845260208401935083602082028501610a108560200190565b8060005b85811015610a455784840389528151610a2d85826109e0565b94506020830160209a909a0199925050600101610a14565b5091979650505050505050565b6020808252810161089d81846109ec565b61076781610816565b803561077d81610a63565b600060208284031215610a8c57610a8c600080fd5b60006107a48484610a6c565b6020810161077d82846107ac565b634e487b7160e01b600052601160045260246000fd5b600082821015610ace57610ace610aa6565b500390565b6000816000190483118215151615610aed57610aed610aa6565b500290565b634e487b7160e01b600052601260045260246000fd5b600082610b1757610b17610af2565b500490565b60608101610b2a8286610827565b610b3760208301856107ac565b6107a460408301846107ac565b634e487b7160e01b600052603260045260246000fd5b634e487b7160e01b600052602260045260246000fd5b600281046001821680610b8457607f821691505b602082108103610b9657610b96610b5a565b50919050565b60608101610baa82866107ac565b8181036020830152610bbc81856107e4565b90506107a46040830184610827565b60006000198203610bde57610bde610aa6565b5060010190565b60008219821115610bf857610bf8610aa6565b500190565b60408101610c0b82856107ac565b61089d60208301846107ac56fea26469706673582212206193dec246b86cde6d7e7099785763628ad6a703ca999e6d1d2eae495d87cdd164736f6c634300080e0033",
  "immutableReferences": {},
  "source": "pragma solidity ^0.8.0;\n\ncontract Feed {\n    struct Post{\n        uint256 timestamp;\n        uint256 id;\n        string content;\n        address creator;\n    }\n\n    Post[] private posts;\n    mapping(address => uint256) donations;\n    uint256 allDonate = 0;\n    uint256 postCount = 0;\n    address public owner;\n\n    constructor() payable {\n        owner = msg.sender;\n    }\n\n    event Posting(uint256 indexed id, uint256 timestamp, string content, address creator);\n    event Withdraw(address creator, uint256 amount, uint256 timestamp);\n    event Donate(address indexed from, uint256 postId,uint256 indexed creator, uint256 indexed timestamp, uint256 amount);\n\n    function post(string memory content) public {\n        posts.push(Post(block.timestamp,postCount, content, msg.sender));\n        emit Posting(postCount, block.timestamp, content, msg.sender);\n        postCount++;\n    }\n\n    function donate(uint256 id) payable public {\n        donations[posts[id].creator] += msg.value;\n        allDonate += msg.value;\n        emit Donate(msg.sender, id,donations[posts[id].creator], block.timestamp, msg.value);\n    }\n\n    function withdraw(uint256 amount) public{\n        if (amount <= donations[msg.sender]) {\n            donations[msg.sender] -= amount;\n            payable(msg.sender).transfer(amount - ((amount*10)/100));\n            emit Withdraw(msg.sender, amount , block.timestamp);\n        }\n    }\n\n    function balance(address _address) public view returns (uint256) {\n        return donations[_address];\n    }\n\n    function allPost() public view returns (Post[] memory) {\n        return posts;\n    }\n\n    function getPost(uint256 id) public view returns (Post memory)  {\n        return posts[id];\n    }\n}",
  "sourcePath": "/Users/jarupaksrisuchat/Documents/github/dapp-template-ppenter/contracts/Feed.sol",
  "compiler": {
    "name": "solc",
    "version": "0.8.14+commit.80d49f37.Emscripten.clang"
  },
  "schemaVersion": "3.4.3",
  "updatedAt": "2022-06-09T13:55:11.018Z",
  "networkType": "ethereum",
  "devdoc": {
    "kind": "dev",
    "methods": {},
    "version": 1
  },
  "userdoc": {
    "kind": "user",
    "methods": {},
    "version": 1
  }
}